:020000040800F2
:1000000008340120E9020008F1020008F3020008A8
:10001000F5020008F7020008F902000800000000DD
:10002000000000000000000000000000290200089D
:10003000FD020008000000008502000875070008A6
:100040000303000803030008030300080303000878
:100050000303000803030008030300080303000868
:100060000303000803030008030300080303000858
:100070000303000803030008030300080303000848
:100080000303000803030008030300080303000838
:100090000303000803030008030300080303000828
:1000A0000303000803030008030300080303000818
:1000B0000303000803030008030300080303000808
:1000C00003030008030300080303000803030008F8
:1000D00003030008030300080303000803030008E8
:1000E00003030008030300080303000803030008D8
:1000F00003030008030300080303000803030008C8
:1001000003030008030300080303000803030008B7
:1001100003030008030300080303000803030008A7
:100120000303000803030008030300080303000897
:100130000303000803030008030300080303000887
:100140000303000803030008030300080303000877
:100150000303000803030008030300080303000867
:100160000303000803030008030300080303000857
:100170000303000803030008030300080000000055
:10018000030300080303000800F002F800F03CF845
:100190000AA090E8000C82448344AAF10107DA45E2
:1001A00001D100F031F8AFF2090EBAE80F0013F0F8
:1001B000010F18BFFB1A43F0010318472823000062
:1001C00048230000103A24BF78C878C1FAD85207F3
:1001D00024BF30C830C144BF04680C6070470000C1
:1001E0000023002400250026103A28BF78C1FBD840
:1001F000520728BF30C148BF0B6070471FB502F0DF
:100200005FF91FBD10B510BD00F059F91146FFF799
:10021000F5FF00F05BFB00F077F903B4FFF7F2FFA6
:1002200003BC00F07FF900002C4B19680868B0E8A7
:10023000F04F80F30988BFF36F8F4FF0000080F319
:10024000118870470000000008480068006880F3CB
:1002500008884FF0000080F3148862B661B6BFF3DF
:100260004F8FBFF36F8F00DF00BF00BF08ED00E0CE
:10027000DFF80C00016841F470010160704700BFB5
:1002800088ED00E0EFF30980BFF36F8F134B1A681E
:100290001EF0100F08BF20ED108A20E9F04F10600B
:1002A00009B44FF0500080F31188BFF34F8FBFF3B4
:1002B0006F8F01F0BFFA4FF0000080F3118809BC86
:1002C00019680868B0E8F04F1EF0100F08BFB0ECD6
:1002D000108A80F30988BFF36F8F704728000020D1
:1002E000EFF3058070470000094880470948004740
:1002F000FEE7FEE7FEE7FEE7FEE7FEE7FEE7FEE7D6
:10030000FEE7FEE704480549054A064B7047000032
:100310006908000889010008082E0120083401201E
:100320000830012008300120032A40F2308010F00C
:10033000030C00F0158011F8013BBCF1020F624480
:1003400098BF11F801CB00F8013B38BF11F8013B11
:10035000A2F1040298BF00F801CB38BF00F8013BBE
:1003600011F0030300F05780083AC0F0088051F8FC
:10037000043B083A51F804CBA0E80810F5E7121D39
:100380005CBF51F8043B40F8043BAFF30080D20758
:1003900024BF11F8013B11F801CB48BF11F8012B24
:1003A00024BF00F8013B00F801CB48BF00F8012B47
:1003B000704702F0FF0343EA032242EA024200F0E0
:1003C0005EB84FF0000200B51346944696462039B9
:1003D00022BFA0E80C50A0E80C50B1F12001BFF4FE
:1003E000F7AF090728BFA0E80C5048BF0CC05DF864
:1003F00004EB890028BF40F8042B08BF704748BFB2
:1004000020F8022B11F0804F18BF00F8012B704725
:1004100070477047704710B5203AC0F00B80B1E8C4
:100420001850203AA0E81850B1E81850A0E8185029
:10043000BFF4F5AF5FEA027C24BFB1E81850A0E832
:10044000185044BF18C918C0BDE810405FEA827C4C
:1004500024BF51F8043B40F8043B08BF7047D20763
:1004600028BF31F8023B48BF11F8012B28BF20F804
:10047000023B48BF00F8012B70474FF000020429EF
:10048000C0F0128010F0030C3FF49DAFCCF1040CCF
:10049000BCF1020F18BF00F8012BA8BF20F8022BF7
:1004A000A1EB0C01FFF78FBF5FEAC17C24BF00F80E
:1004B000012B00F8012B48BF00F8012B704775464F
:1004C00000F02CF8AE4605006946534620F00700C0
:1004D000854618B020B5FFF715FFBDE820404FF066
:1004E00000064FF000074FF000084FF0000B21F01E
:1004F0000701AC46ACE8C009ACE8C009ACE8C009EB
:10050000ACE8C0098D46704710B50446AFF30080D3
:100510002046BDE81040FFF780BE0000004870474D
:10052000A82D012001491820ABBEFEE726000200DD
:10053000704700004B48006840F0080049490860D7
:100540004948006820F00070474908600846006884
:1005500040F080700860081D006820F48050091D7C
:10056000086041480C30006820F040703E490C3172
:100570000860081F006840F08070091F0860084686
:10058000006820F0007008603748006820F00060C4
:10059000354908600846006840F080600860081D22
:1005A000006820F40050091D08602F480C300068D6
:1005B00020F040602C490C310860081F006840F0B2
:1005C0008060091F08600846006820F0006008602D
:1005D0002548006820F0005023490860084600685C
:1005E00040F080500860081D006820F48040091D1C
:1005F00008601D480C30006820F040501A490C314A
:100600000860081F006840F08050091F0860084615
:10061000006820F0005008601348006820F0004097
:10062000114908600846006840F080400860081DD5
:10063000006820F40040091D08600B480C30006879
:1006400020F0404008490C310860081F006840F065
:100650008040091F08600846006820F000400860DC
:100660007047000030380240000C02403F480068EC
:1006700020F03F003D4908600846006847F6C07119
:1006800088433A4908600846006820F44030086012
:100690000846006820F0706008600846006820F492
:1006A00080000860081F006840F48030091F08605F
:1006B00000BF2E48001F006800F400300028F8D06A
:1006C0002A48001D00682949091D0860084600687D
:1006D00040F4A05008600846006840F400400860FC
:1006E000081F006840F00800091F086008460068FD
:1006F00040F4A84008600846006820F440300860D4
:100700000846006840F4800008600846006840F031
:10071000E0600860081F006840F08070091F0860F2
:1007200000BF1248001F006800F000700028F8D0D9
:100730000F48006840F2057108430D4908600B48F6
:10074000001D006820F003000849091D08600846E4
:10075000006840F00200086000BF0448001D006807
:1007600000F008000028F8D070470000043802406C
:10077000003C024010B500BF502080F31188BFF349
:100780004F8FBFF36F8F00BF01F056FC18B14FF0D1
:1007900080500449086000BF002080F3118800BF2A
:1007A00010BD000004ED00E070B50020002202231F
:1007B00000240221274D2D6805F00C0020B10428EB
:1007C00006D0082834D107E0234D244E356033E0AD
:1007D000234D224E35602FE01E4D2D1F2D68C5F391
:1007E00080541C4D2D1F2D6805F03F0154B11C4D48
:1007F000B5FBF1F5174E361F3668C6F3881605FBB4
:1008000006F209E0144DB5FBF1F5124E361F3668BD
:10081000C6F3881605FB06F20E4D2D1F2D68C5F395
:1008200001456D1C6B00B2FBF3F50C4E356003E027
:10083000094D0A4E356000BF00BF064D2D68C5F357
:100840000315084E705D054D2D68C540034E35609B
:1008500070BD0000083802400024F40000000020B1
:1008600000127A00CA2400081448006840F470009E
:10087000124908601248006840F001001049086001
:1008800000200F49083108600D4800680D490840F4
:100890000B4908600C48091D0860081F006820F417
:1008A0008020091F0860002005490C3108604FF0C6
:1008B00000600249803908607047000088ED00E060
:1008C00000380240FFFFF6FE103000241CB5FFF791
:1008D000CDFEFFF72FFEFFF767FF294800684FF4B2
:1008E0007A72B0FBF2F1481EB0F1807F00D31BE0BA
:1008F000481E4FF0E022506150170F22002807DAFF
:1009000013071D0E1F4B00F00F04241F1D5503E09D
:1009100013071C0E1C4B1C5400BF00204FF0E0229C
:1009200090610720106100BF0020022103462022B1
:10093000CDE9001015A1184801F038FB0020022174
:1009400003462022CDE9001014A1184801F02EFB27
:100950000020022103462022CDE9001014A11748EF
:1009600001F024FB0020022103462022CDE90010E3
:1009700013A1164801F01AFB00F00AFF00BFFEE7C2
:100980000000002018ED00E000E400E0426C696E19
:100990006B20477265656E0009160008426C696E2F
:1009A0006B204F72616E6765000000003916000809
:1009B000426C696E6B205265640000006916000885
:1009C000426C696E6B20426C75650000D915000899
:1009D0002DE9F04105460E461C4807681C48006892
:1009E000001D00F0C3FC50B91948006890F82C10A5
:1009F0000120884017490968814316480160681C36
:100A000038B936B112480168091D134800F0ECFCF2
:100A10001AE07C190E4800684460BC4207D20C48BA
:100A20000168091D0D48006800F0C4FC0CE008488E
:100A30000168091D0A48006800F0BCFC094800680C
:100A4000844201D207480460BDE8F0813C000020E8
:100A500028000020400000206C2D012030000020E4
:100A60002C0000205800002010B5044600F0C8FCFF
:100A700024480068401C234908602348006840B9A6
:100A8000214804600846006801280DD100F0AEF945
:100A90000AE01E48006838B91B480068C06AE16A6D
:100AA000884201D81848046019480068401C184959
:100AB000086008460068206494F82C1001208840E3
:100AC00014490968084313490860E16A01EB810190
:100AD000114A02EB8100211D00F086FC00F0BAFCF7
:100AE0000A48006868B108480068C06AE16A88423C
:100AF00007D24FF0805009490860BFF34F8FBFF312
:100B00006F8F10BD38000020280000204400002016
:100B10005400002040000020B82C012004ED00E02B
:100B200010B500F06DFC10480068D0B90F4800F017
:100B300031FC0F4800F02EFC0C480E4908600C48B0
:100B40000D49086000220C210A2000F06DFF0649C3
:100B500008600846006820B108A10348006800F05A
:100B6000FFFC00F077FC10BD6C000020802D012000
:100B7000942D01206400002068000020546D725103
:100B80000000000010B516E000F03AFC0C48C06808
:100B9000C468201D00F0EAFB0A480068401E0949AD
:100BA000086009480068401E0749086000F052FCD0
:100BB000204600F05EF8044800680028E4D110BD2B
:100BC000582D0120380000203400002070B5044664
:100BD0000D46206C70B1216CE0680844E0606168EB
:100BE000E068884201D32068E0602846226CE16812
:100BF000FFF79AFB70BD2DE9F04104460F461546FC
:100C00004FF00008A66B206C40B9206860BB60689C
:100C100001F0B6FA80460020606025E07DB93946D3
:100C2000226CA068FFF780FB216CA0680844A060DC
:100C3000D4E90110884217D32068A06014E0394637
:100C4000226CE068FFF770FB216CE068401AE060FE
:100C50002168E068884203D2216C6068401AE06035
:100C6000022D01D106B1761E701CA0634046BDE87E
:100C7000F08110B50446206B00F00AFC204600F01D
:100C800007FC10BD0146084A126812680AB9012221
:100C900000E000220A600A6822B9034A1268D2689A
:100CA000106800E00020704764000020094A22F02C
:100CB0000700094A10600022074B5A60074A084B98
:100CC0005A6000221A600146044A4A601A460A60C5
:100CD000704700008000002004000020F82B010075
:100CE0000C00002000BFFFF74DFF064800680128F8
:100CF000F9D94FF0805004490860BFF34F8FBFF31C
:100D00006F8FF0E7B82C012004ED00E02DE9F041F1
:100D100006460D4617469846069C0DB9246000E02D
:100D20002760E66325640121204600F0A9FE84F8CF
:100D30004C80BDE8F0812DE9F05F82460F46904679
:100D40009B460A9E0C9C4FEA8801A522206BFFF768
:100D500030FBA8F10100216B01EB800929F00709A4
:100D600009F0070008B9012000E0002050B900BFD9
:100D7000502080F31188BFF34F8FBFF36F8F00BFF8
:100D800000BFFEE7002507E0795D04F1340041551E
:100D9000785D00B902E06D1C0A2DF5D300BF00217B
:100DA0003D200155052E00D30426E662A6640020EE
:100DB000E064201D00F0FBFA04F1180000F0F7FADF
:100DC0002461C6F10500A06164620020206584F8FA
:100DD00054005A465146484600F0B2FA20600B983B
:100DE00008B10B980460BDE8F09F000010B5002426
:100DF00007E004EB84010F4A02EB810000F0CAFA1D
:100E0000641C052CF5D30C4800F0C4FA0B4800F024
:100E1000C1FA0B4800F0BEFA0A4800F0BBFA0A48D3
:100E200000F0B8FA04480949086004480849086015
:100E300010BD0000B82C01201C2D0120302D0120F8
:100E4000442D0120582D01206C2D01202C00002064
:100E5000300000202DE9F04104460D4616461F469D
:100E60004FF0000865602461B5420CD8F01BA16901
:100E7000884202D34FF0010811E0211D09480068A3
:100E800000F098FA0BE0BE4204D2BD4202D34FF00C
:100E9000010804E0211D0448006800F08BFA404678
:100EA000BDE8F081680000206400002070B50546B0
:100EB00000F0A6FAA86B08B9012400E0002400F0B5
:100EC000C9FA204670BD70B5054600F099FAA86BC6
:100ED000E96B884201D1012400E0002400F0BAFA55
:100EE000204670BDF8B505460F4616480068C06834
:100EF000C468201D00F03AFAE06901281DD1A069FC
:100F000041192B463A462046FFF7A4FFA8B100201E
:100F100003462A4601460090204601F08FFA064615
:100F200056B900BF502080F31188BFF34F8FBFF335
:100F30006F8F00BF00BFFEE700BF2046616A884791
:100F4000F8BD00006400002070B586B06AE0039828
:100F5000002867DB059C606908B9012000E00020DB
:100F600010B9201D00F002FA02A800F0BBF80546F7
:100F700003980A2854D2DFE800F009050731334FFF
:100F80000608323400BF00BF00BF00BF0498A2694A
:100F9000811803462A462046FFF75CFFE8B1204649
:100FA000616A8847E069012817D100200090049801
:100FB000A169421800231946204601F03FFA06466F
:100FC00056B900BF502080F31188BFF34F8FBFF395
:100FD0006F8F00BF00BFFEE700BF22E000BF20E030
:100FE00000BF0498A061A06908B1012000E00020C2
:100FF00050B900BF502080F31188BFF34F8FBFF36B
:101000006F8F00BF00BFFEE7A06941192B462A463B
:101010002046FFF71FFF04E0204600F039FA00E009
:1010200000BF00BF002203A90348006800F0C4FE0F
:1010300000288CD106B070BD6C000020F8B50546C4
:101040000C4600F0EFFB684600F04CF806460098AE
:1010500020BB44B9B54206D801F042F931462846D2
:10106000FFF740FF1CE03CB10E480068006808B97B
:10107000012000E000200446A91B22460A4800681F
:1010800000F084FA01F02CF950B94FF08050074974
:101090000860BFF34F8FBFF36F8F01E001F020F9BD
:1010A000F8BD0000680000206C00002004ED00E0A6
:1010B0000A490968096809B9012100E0002121B144
:1010C0004FF0FF31064A116006E004490968C9681B
:1010D000C868034A41681160704700002C00002076
:1010E0005800002070B5044600F0A0FF05460748F0
:1010F0000068854204D200F00BF80120206001E076
:101100000020206001480560284670BD7400002062
:101110002DE9F84332E024480068C0680568224899
:101120000068C068C468201D00F020F92046616A8C
:101130008847E069012821D1A0694619AE4207D944
:1011400066602461211D1848006800F033F915E03D
:10115000002003462A4601460090204601F06EF921
:10116000074657B900BF502080F31188BFF34F8F57
:10117000BFF36F8F00BF00BFFEE700BF0A480068E3
:10118000006808B9012000E000200028C3D006480C
:10119000D0F8008005480068034908600348C0F89B
:1011A0000080BDE8F8830000640000206800002093
:1011B0000E480068401C08B9012000E0002050B92A
:1011C00000BF502080F31188BFF34F8FBFF36F8FA4
:1011D00000BF00BFFEE700BF502080F31188BFF3BF
:1011E0004F8FBFF36F8F00BF00BFFEE71C000020D2
:1011F00008B500BF6846FFF745FD04462046009944
:10120000FFF71CFFFFF7A0FEF4E770B5044600F0FF
:10121000F7F894F9455010E0606A08B9012000E041
:10122000002038B904F1240001F00EF818B100F0E4
:101230006DFA00E003E0681E45B2002DECDC00BF53
:10124000FF2084F8450000F005F900F0D9F894F982
:10125000445010E0206908B9012000E0002048B99E
:1012600004F1100000F0F0FF08B100F04FFA681E22
:1012700045B200E001E0002DECDC00BFFF2084F867
:10128000440000F0E7F870BD2DE9F04104464FF04E
:10129000000800F0C7FA2548006820B9FFF706FDEE
:1012A00001202249086044B1083404F0070020B14D
:1012B00004F00700C0F108000444002C31D01C48A1
:1012C00084422ED21B4F3846056801E02F462D6818
:1012D0006868A04202D228680028F7D116488542E3
:1012E0001FD0386800F10808286838606868001B5B
:1012F000102810D92E196868001B70606C60716826
:101300000C4800E00068026852688A42FAD302681A
:101310003260066000BF094968680968081A074911
:10132000086000F0DDFF4046BDE8F08118000020B5
:10133000F82B0100040000200C0000201400002005
:10134000001F4FF080730360001F21F00103036052
:10135000001F054B036014380260001F6FF002038A
:101360000360203870470000B111000801460A6987
:10137000D1E901309860D1E9010358605068884292
:1013800001D188685060002008611068401E10601C
:101390001068704700F1080141604FF0FF31816033
:1013A00000F10801C1600161002101607047002166
:1013B0000161704710B502460B685C1C0CB91069DE
:1013C00007E002F1080000E04068446824689C429D
:1013D000FAD944684C604C68A160886041600A6139
:1013E0001468641C146010BD42684A6093688B6086
:1013F000936859609160086103685B1C03607047E3
:1014000000BF502080F31188BFF34F8FBFF36F8F61
:1014100000BF0E480068401C0C4908600846006880
:10142000012812D10A480068C0B208B9012000E0C2
:10143000002050B900BF502080F31188BFF34F8FB8
:10144000BFF36F8F00BF00BFFEE770471C00002096
:1014500004ED00E00D48006850B900BF502080F353
:101460001188BFF34F8FBFF36F8F00BF00BFFEE740
:1014700006480068401E054908600846006820B913
:10148000002080F3118800BF00BF70471C000020BF
:1014900070B506463546B6B1083D2C4600F0C2F997
:1014A0006168094800E00068026852688A42FAD31D
:1014B00002682260046005496068096808440349BD
:1014C000086000F00DFF70BD040000201400002033
:1014D00000204FF0E0210861886102484861072040
:1014E000086170473F90020070B5FEF7F9FE0446B0
:1014F000102C16D304F1E02090F8F0531548007832
:10150000854201DB012000E0002050B900BF5020DF
:1015100080F31188BFF34F8FBFF36F8F00BF00BF01
:10152000FEE70D48006800F4E0600C490968884255
:1015300001D8012000E0002050B900BF502080F306
:101540001188BFF34F8FBFF36F8F00BF00BFFEE75F
:1015500070BD0000200000200CED00E02400002001
:10156000024600200BE0084B53F8303033B9064BED
:1015700043F8301003EBC0035A6002E0401C082817
:10158000F1D300BF70470000782C01202DE9F04115
:1015900005460E4617462C46FFF732FF94F94400E5
:1015A000401C10B9002084F8440094F94500401C08
:1015B00010B9002084F84500FFF74CFFA06B28B954
:1015C0003A46314604F1240000F0C2F82046FFF705
:1015D0001CFEBDE8F081000013E00A48006840F0FE
:1015E0000040084908604FF47A7000F055F805484B
:1015F000006840F40040034908604FF47A7000F03E
:101600004BF8EAE7180C024013E00A48006840F47F
:101610008050084908604FF47A7000F03DF80548A2
:10162000006840F08050034908604FF47A7000F081
:1016300033F8EAE7180C024013E00A48006840F06B
:101640000050084908604FF47A7000F025F805480A
:10165000006840F40050034908604FF47A7000F0CD
:101660001BF8EAE7180C024013E00A48006840F44F
:101670008040084908604FF47A7000F00DF8054882
:10168000006840F08040034908604FF47A7000F031
:1016900003F8EAE7180C024070B504460025D4B1FF
:1016A0001248006808B9012000E0002050B900BFCE
:1016B000502080F31188BFF34F8FBFF36F8F00BFAF
:1016C00000BFFEE700F0AEF800212046FFF780F9EA
:1016D00000F006FE05463DB94FF080500449086011
:1016E000BFF34F8FBFF36F8F70BD0000600000200D
:1016F00004ED00E00349096801600349096841609D
:1017000070470000500000203C00002001200149EB
:10171000086070474C00002070B504460D4654B96F
:1017200000BF502080F31188BFF34F8FBFF36F8F3E
:1017300000BF00BFFEE70548016818312046FFF7EB
:1017400039FE01212846FFF743F970BD280000202B
:1017500070B505460E46144655B900BF502080F3BB
:101760001188BFF34F8FBFF36F8F00BF00BFFEE73D
:101770000648016818312846FFF736FE0CB14FF0D5
:10178000FF3621463046FFF723F970BD28000020C0
:101790001CB51D4800210B468222CDE900101BA17B
:1017A0001C4800F003FC0446012C02D100F01AFE94
:1017B0000446012C15D100BF502080F31188BFF3DF
:1017C0004F8FBFF36F8F00BF4FF0FF30124908609B
:1017D00001201249086000201149086000F070F8EB
:1017E00010E0601C08B1012000E0002050B900BFEB
:1017F000502080F31188BFF34F8FBFF36F8F00BF6E
:1018000000BFFEE71CBD00005C00002049444C45C1
:1018100000000000E50C00085800002044000020F3
:101820003C00002002480068401C014908607047E5
:10183000600000201D48006818B101201C490860A4
:1018400032E000201A4908601A480068B0FA80F0B7
:10185000C0F11F0101EB8100174A52F8200008B1C6
:10186000012000E0002050B900BF502080F3118813
:10187000BFF34F8FBFF36F8F00BF00BFFEE701EBD9
:1018800081020D4B03EB820042685268426000F116
:1018900008024368934202D142685268426042683B
:1018A000D268064B1A6000BF70470000600000203D
:1018B0004C00002040000020B82C0120280000200F
:1018C0001CB5524800685249884201D0012000E00E
:1018D000002050B900BF502080F31188BFF34F8F14
:1018E000BFF36F8F00BF00BFFEE74848006848495C
:1018F000491E884201D0012000E0002050B900BFFD
:10190000502080F31188BFF34F8FBFF36F8F00BF5C
:1019100000BFFEE73F49084600780190FF200A46D5
:1019200010700846007800909DF8000000F0F0006C
:101930009DF80020904201D1012000E0002050B924
:1019400000BF502080F31188BFF34F8FBFF36F8F1C
:1019500000BF00BFFEE79DF8000000F050002E4AD7
:10196000107007202D4A106009E02C480068401EC6
:101970002A4A10609DF800004006000E00909DF875
:10198000000000F080008028EFD024480068C0F1FB
:101990000700042801D1012000E0002050B900BF59
:1019A000502080F31188BFF34F8FBFF36F8F00BFBC
:1019B00000BFFEE7194800680002184A1060104690
:1019C000008800F4E0601060124A019810700F481F
:1019D0002030006840F470000C492031086008464F
:1019E000006840F070400860FFF772FD00200C496D
:1019F0000860FEF73DFC0B48006840F04040094994
:101A00000860FEF721FC00201CBD000000ED00E096
:101A100071C20F4100E400E02000002024000020FB
:101A20001C00002034EF00E02DE9F84305460E4687
:101A300090460DB1012000E0002050B900BF5020B9
:101A400080F31188BFF34F8FBFF36F8F00BF00BFCC
:101A5000FEE70EB9002701E005FB06F707F150008D
:101A6000FFF712FC044644B104F1500943464A46CC
:101A7000314628460094FFF749F92046BDE8F8832F
:101A800070B505460E462C4654B900BF502080F371
:101A90001188BFF34F8FBFF36F8F00BF00BFFEE70A
:101AA000FFF7AEFCD4E90F12206801FB0200606072
:101AB0000020A0632068A060E06B401E226C2168BB
:101AC00000FB0210E060FF2084F8440084F8450029
:101AD0009EB9206908B9012000E00020A8B904F1EE
:101AE000100000F0B1FB80B14FF080500949086050
:101AF000BFF34F8FBFF36F8F07E004F11000FFF7C4
:101B000049FC04F12400FFF745FCFFF7A3FC01208A
:101B100070BD000004ED00E02DE9FF4383B00646F0
:101B200088461D464FF00009344654B900BF502086
:101B300080F31188BFF34F8FBFF36F8F00BF00BFDB
:101B4000FEE7B8F1000F01D1206C08B9012000E0D8
:101B5000002050B900BF502080F31188BFF34F8F91
:101B6000BFF36F8F00BF00BFFEE7022D02D1E06B15
:101B7000012801D1012000E0002050B900BF502011
:101B800080F31188BFF34F8FBFF36F8F00BF00BF8B
:101B9000FEE700F03BFA08B9059808B9012000E01B
:101BA000002050B900BF502080F31188BFF34F8F41
:101BB000BFF36F8F00BF00BFFEE700BFFFF720FC41
:101BC000A06BE16B884201D3022D28D12A46414601
:101BD0002046FFF710F80746606A08B9012000E0C8
:101BE000002068B904F1240000F02EFB88B14FF00A
:101BF000805032490860BFF34F8FBFF36F8F08E00A
:101C00003FB14FF080502D490860BFF34F8FBFF3B5
:101C10006F8FFFF71FFC012007B0BDE8F083059828
:101C200018B9FFF717FC0020F6E7B9F1000F04D14F
:101C300001A8FFF75FFD4FF00109FFF70BFCFFF76D
:101C4000F1FDFFF7DDFB94F94400401C10B90020C2
:101C500084F8440094F94500401C10B9002084F831
:101C60004500FFF7F7FB05A901A800F059F9F0B905
:101C70002046FFF728F9A0B104F110000599FFF7FD
:101C80004BFD2046FFF7C1FA00F02AFB002895D152
:101C90004FF0805009490860BFF34F8FBFF36F8F3B
:101CA0008CE72046FFF7B1FA00F01AFB86E72046E2
:101CB000FFF7ABFA00F014FB0020ADE704ED00E005
:101CC0002DE9F05F07468A4690461E463C4654B9C9
:101CD00000BF502080F31188BFF34F8FBFF36F8F89
:101CE00000BF00BFFEE7BAF1000F01D1206C08B9B8
:101CF000012000E0002050B900BF502080F311887F
:101D0000BFF34F8FBFF36F8F00BF00BFFEE7022E00
:101D100002D1E06B012801D1012000E0002050B980
:101D200000BF502080F31188BFF34F8FBFF36F8F38
:101D300000BF00BFFEE7FFF7D7FB00BF5021EFF366
:101D4000118081F31188BFF34F8FBFF36F8F00BFF6
:101D50000546A06BE16B884201D3022E23D194F992
:101D600045B0324651462046FEF745FF0BF10100D3
:101D700088B9606A08B9012000E0002080B904F148
:101D8000240000F061FA58B1B8F1000F08D001202A
:101D9000C8F8000004E00BF1010040B284F84500EF
:101DA0004FF0010901E04FF0000900BF85F31188F1
:101DB00000BF4846BDE8F09F2DE9F74183B00546D6
:101DC0000E464FF000082C4654B900BF502080F357
:101DD0001188BFF34F8FBFF36F8F00BF00BFFEE7C7
:101DE0000EB9206C08B9012000E0002050B900BFF6
:101DF000502080F31188BFF34F8FBFF36F8F00BF68
:101E000000BFFEE700F002F908B9059808B9012003
:101E100000E0002050B900BF502080F31188BFF3CC
:101E20004F8FBFF36F8F00BF00BFFEE700BFFFF70C
:101E3000E7FAA76BF7B131462046FEF7C7FE781EDA
:101E4000A063206908B9012000E0002060B904F116
:101E5000100000F0F9F938B14FF080502F490860B8
:101E6000BFF34F8FBFF36F8FFFF7F4FA012006B077
:101E7000BDE8F081059818B9FFF7ECFA0020F6E705
:101E8000B8F1000F04D101A8FFF734FC4FF00108AE
:101E9000FFF7E0FAFFF7C6FCFFF7B2FA94F9440047
:101EA000401C10B9002084F8440094F94500401CFF
:101EB00010B9002084F84500FFF7CCFA05A901A865
:101EC00000F02EF8F0B92046FEF7F0FFA0B104F1C3
:101ED00024000599FFF720FC2046FFF796F900F053
:101EE000FFF90028A3D14FF080500C490860BFF3E0
:101EF0004F8FBFF36F8F9AE72046FFF786F900F008
:101F0000EFF994E72046FFF780F900F0E9F9204661
:101F1000FEF7CCFF00288AD00020A8E704ED00E0FF
:101F200070B505460C4655B900BF502080F31188A6
:101F3000BFF34F8FBFF36F8F00BF00BFFEE754B9F1
:101F400000BF502080F31188BFF34F8FBFF36F8F16
:101F500000BF00BFFEE7FFF753FA12480268686847
:101F6000131A2068401C08B9002617E00E4928689B
:101F70000968884204D06868904201D801260DE0C3
:101F80002068984207D92068C01A20602846FFF7C9
:101F9000B1FB002602E0002020600126FFF75AFA7C
:101FA000304670BD3C000020500000202DE9FF4F5E
:101FB00085B0804689461746DDE912ABB800FFF7C9
:101FC00063F9064656B15820FFF75EF904460CB196
:101FD000266304E03046FFF75BFA00E000247CB1A2
:101FE0000020CDE900ABCDE902403A4649464046E3
:101FF000089BFEF7A0FE2046FEF736FD012501E016
:102000004FF0FF35284609B0BDE8F08F0549096853
:1020100009B9012005E00449096809B9022000E076
:10202000002070474400002060000020014908683B
:10203000704700003C0000202DE9F0414FF00008FF
:1020400044480068002877D143480068451C42484E
:10205000056015BB41480068006808B9012000E030
:10206000002050B900BF502080F31188BFF34F8F7C
:10207000BFF36F8F00BF00BFFEE7384807683848DE
:102080000068364908603648076036480068401CDA
:1020900034490860FFF70CF800BF334800688542F8
:1020A0003CD300BF2D480068006808B9012000E05B
:1020B000002020B14FF0FF302B4908602DE0274869
:1020C0000068C068C4686668B54202D226480660E7
:1020D00023E0201DFFF74AF9A06A18B104F11800A7
:1020E000FFF744F994F82C10012088401F49096833
:1020F00008431E490860E16A01EB81011C4A02EBBA
:102100008100211DFFF770F91A49E06A0968C96A60
:102110008842C7D34FF00108C4E700BF15480068E4
:10212000C06A00EB8000124951F82000012801D953
:102130004FF0010805E0FFE70F480068401C0E491A
:1021400008600E48006808B14FF001084046BDE83D
:10215000F0810000600000203C0000202C000020E6
:1021600030000020500000205800002040000020D7
:10217000B82C012028000020480000204C0000203E
:1021800070B505462C460026002D55D02B4800681A
:10219000844201D1012000E0002050B900BF50204E
:1021A00080F31188BFF34F8FBFF36F8F00BF00BF65
:1021B000FEE7E06C50B900BF502080F31188BFF3F8
:1021C0004F8FBFF36F8F00BF00BFFEE7E06C401E74
:1021D000E064A16CE06A88422ED0E06C60BB201DF8
:1021E000FFF7C4F878B9E06A00EB8000144951F8B1
:1021F000200040B994F82C1001208840114909684A
:10220000814310480160A06CE062E06AC0F1050003
:10221000A06194F82C10012088400A4909680843FD
:1022200008490860E16A01EB8101054A02EB81007F
:10223000211DFFF7D9F80126304670BD2800002087
:10224000B82C01204000002070B50646F068C46834
:1022500054B900BF502080F31188BFF34F8FBFF3F4
:102260006F8F00BF00BFFEE704F11800FFF77EF894
:1022700015480068A8B9201DFFF778F894F82C10CD
:102280000120884011490968084310490860E16A43
:1022900001EB81010E4A02EB8100211DFFF7A4F83A
:1022A00004E004F118010B48FFF79EF80A49E06AC0
:1022B0000968C96A884204D90125012007490860D4
:1022C00000E00025284670BD60000020400000208E
:1022D000B82C0120442D0120280000204C000020B3
:1022E00070B5002400263648006850B900BF502061
:1022F00080F31188BFF34F8FBFF36F8F00BF00BF14
:10230000FEE7FFF77DF82E480068401E2C49086064
:102310000846006800284FD12A48006800284BD0A2
:1023200024E02948C068C46804F11800FFF71EF8CB
:10233000201DFFF71BF894F82C100120884023493A
:102340000968084321490860E16A01EB8101204ADC
:1023500002EB8100211DFFF747F81E49E06A09687A
:10236000C96A884202D301201B49086016480068E8
:1023700008B9012000E000200028D2D00CB1FEF7FF
:1023800097FE1648056865B100BFFFF755FE10B10E
:102390000120114908606D1E002DF6D100200F4963
:1023A00008600D48006838B1012630070C49086004
:1023B000BFF34F8FBFF36F8FFFF74CF8304670BD00
:1023C0006000002038000020442D01204000002043
:1023D000B82C0120280000204C00002048000020DC
:1023E00004ED00E01CB50024FEF79AFB0E480068DF
:1023F00058B10E48022100234FF48272CDE900103B
:102400000BA10D48FFF7D2FD044654B900BF502080
:1024100080F31188BFF34F8FBFF36F8F00BF00BFF2
:10242000FEE720461CBD00006C000020700000206C
:10243000546D722053766300F11100082DE9FE43BC
:1024400004460D4616461F46DDF828804FF0000969
:1024500054B900BF502080F31188BFF34F8FBFF3F2
:102460006F8F00BF00BFFEE71448006810B30095EF
:1024700001960294062D15DAFFF7C8FD022808D14F
:102480000023424669460D480068FFF745FB814638
:1024900010E000231A46694608480068FFF73CFB35
:1024A000814607E000233A46694604480068FFF782
:1024B00007FC81464846BDE8FE8300006C00002012
:1024C0004FF04070E1EE100A70470000000000007D
:1024D00000000102030406070809000000000102D1
:1024E000030400000425000800000020780000001C
:1024F000C40100087C25000878000020903301000A
:10250000E00100080024F4000000000000000000CA
:102510000000000000000000F82B01000000000097
:10252000AAAAAAAA00000000000000000000000003
:10253000000000000000000000000000000000009B
:10254000000000000000000000000000000000008B
:10255000000000000000000000000000000000007B
:10256000000000000000000000000000000000006B
:0C2570000000000000000000000000005F
:040000050800018965
:00000001FF
